:020000007A295B
:1000060083160313061086100611861183122C0818
:10001600F00070181028061011280614F01815287C
:1000260086101628861470191A2806111B2806151C
:10003600F0191F288611202886150D30FD00FD0BAE
:10004600222886160D30FD00FD0B27288612080093
:1000560083160313061086100611861183122A08CA
:10006600031937280616382806120D30FD00FD0B39
:100076003A280D30FD00FD0B3E2886122B08AC00F9
:10008600AC0CAC13AC0CAC13AC0CAC13AC0CAC138E
:0C00960003200F302B05AC0003200800F5
:1000A200831203132808003A03195A284030A90082
:1000B2005B28A90127082907F0007008A900AA01F6
:0A00C20080307004AB002B20080012
:0E00CC008312031321088A0020088200080016
:1000DA00A32883120313AA010130AB002B200D3091
:1000EA00FC00FB30FD00FD0B7828FC0B7828000093
:1000FA000000B228A7010130A8005120B228AA01A5
:10010A001030AB002B200D30FC00FB30FD00FD0B46
:10011A008C28FC0B8C2800000000B2280130AA00B1
:10012A002608AB002B200D30FC00FB30FD00FD0B38
:10013A009C28FC0B9C2800000000B22883120313A1
:10014A0026080C3A03196E2826080A3A03197F284A
:0C015A002608083A03198428932808009E
:10016600831203132408A0002508A10066208A1123
:100176000A12F00070080319CD282408A0002508EB
:10018600A10066208A110A12A6006D20A40A03198E
:06019600A50AB3280800D1
:10019C0083120313A401AA014030AB002B202408C6
:1001AC00593EF00002300318013EF1007008A00027
:1001BC007108A10066208A110A12F1007108993A9F
:1001CC000319FC280130AA002408593EF000023023
:1001DC000318013EF1007008A0007108A100662010
:0E01EC008A110A12AB002B20A40AD5280800A5
:1001FA00831603138612061206108610061186113C
:10020A002730FC00F530FD00FD0B0929FC0B0929FC
:10021A008312061286120330AC0003201A30FC0047
:10022A00F830FD00FD0B1729FC0B172900000330DD
:10023A00AC0003201A30FC00F830FD00FD0B232926
:10024A00FC0B232900000330AC0003201A30FC0009
:10025A00F830FD00FD0B2F29FC0B2F29000002307E
:10026A00AC0003200330FC009730FD00FD0B3B2956
:10027A00FC0B3B2900000000AA012830AB002B2010
:10028A000330FC009730FD00FD0B4929FC0B49297E
:10029A0000000000AA010C30AB002B200330FC0048
:1002AA009730FD00FD0B5729FC0B57290000000071
:1002BA00AA010130AB002B200330FC009730FD006F
:1002CA00FD0B6529FC0B652900000000AA01063018
:1002DA00AB002B200330FC009730FD00FD0B732987
:0A02EA00FC0B73290000000008005F
:1002F4008316031789018801FD20CE200C30A60047
:100304006D20A701A8015120A201A30100302302FE
:10031400031D8E290F3022020318A52922089A3EB4
:10032400F00002300318013E2307F1007008A0001A
:100334007108A10066208A110A12A6006D20A20A83
:100344000319A30A8829A7010130A8005120B53058
:10035400A4000230A500B3201530FB004B30FC0094
:10036400BE30FD00FD0BB429FC0BB429FB0BB429F2
:1003740000000C30A6006D20A701A8015120A201A5
:10038400A3012308003C031DC9292208033C031CC4
:10039400E0292208C53EF00002300318013E23077D
:1003A400F1007008A0007108A10066208A110A12E9
:1003B400A6006D20A20A0319A30AC3290530A700C9
:1003C400A8015120A930A4000230A500B320A70140
:1003D4000130A8005120A201A3012308003C031D01
:1003E400F5292208103C031C0C2A22088A3EF0003E
:1003F40002300318013E2307F1007008A0007108C1
:10040400A10066208A110A12A6006D20A20A03190F
:10041400A30AEF291530FB004B30FC00BE30FD0071
:10042400FD0B122AFC0B122AFB0B122A00000C30C3
:10043400A6006D20A701A8015120BB30A400023002
:10044400A500B320A7010130A8005120A201A301F7
:100454002308003C031D302A2208033C031C472ABE
:100464002208C13EF00002300318013E2307F100C8
:100474007008A0007108A10066208A110A12A60063
:100484006D20A20A0319A30A2A2A1530FB004B3057
:10049400FC00BE30FD00FD0B4D2AFC0B4D2AFB0B6E
:0E04A4004D2A00000C30A6006D208329582A36
:1004B200003400340E34113411340E340034043458
:1004C2000E3411340E3411341F3410340F3400340E
:1004D200083404340E3401340F3411340F34003430
:1004E200023401340E341134113411340E34003418
:1004F2000434023404340C34043404340E3400342E
:10050200023405340E341134113411340E340034F3
:0205120099341A
:100514004E3403346934733469346E3468343A3491
:10052400543404346E346834283454345034293404
:100534004834003476340234743401346E34733401
:0E05440069346E3468347634693401346E34B0
:10055200733469346E34683420343A346D346D3413
:080562002F34793479340034A0
:0C056A004D345334533456343A340034CA
:0C05760048344B34543454343A340034CC
:080582004C34053470343A34A6
:08058A004E3467340234793469
:04400E00F22F000786
:00000001FF
