:02000000B12924
:1000060083160313061086100611861183122A081A
:10001600F00070181028061011280614F01815287C
:1000260086101628861470191A2806111B2806151C
:10003600F0191F288611202886150D30FD00FD0BAE
:10004600222886160D30FD00FD0B27288612080093
:1000560083160313061086100611861183122808CC
:10006600031937280616382806120D30FD00FD0B39
:100076003A280D30FD00FD0B3E2886122908AA00FD
:10008600AA0CAA13AA0CAA13AA0CAA13AA0CAA139E
:0C00960003200F302905AA0003200800F9
:1000A200831203132608003A03195A284030A70086
:1000B2005B28A70125082707F0007008A700A80100
:0A00C20080307004A9002B20080014
:0E00CC008312031321088A0020088200080016
:1000DA00A32883120313A8010130A9002B200D3095
:1000EA00FC00FB30FD00FD0B7828FC0B7828000093
:1000FA000000B228A5010130A6005120B228A801AB
:10010A001030A9002B200D30FC00FB30FD00FD0B48
:10011A008C28FC0B8C2800000000B2280130A800B3
:10012A002408A9002B200D30FC00FB30FD00FD0B3C
:10013A009C28FC0B9C2800000000B22883120313A1
:10014A0024080C3A03196E2824080A3A03197F284E
:0C015A002408083A0319842893280800A0
:10016600831203132208A0002308A10066208A1127
:100176000A12F00070080319CD282208A0002308EF
:10018600A10066208A110A12A4006D20A20A031992
:06019600A30AB3280800D3
:10019C0083120313A501A6015120DD30A20001300A
:1001AC00A300B320A5010130A6005120F330A2001A
:1001BC000130A300B3201530FB004B30FC00BE30E7
:1001CC00FD00FD0BE728FC0BE728FB0BE7280000E4
:1001DC000C30A4006D20A501A6015120CD30A20049
:1001EC000130A300B320A5010130A6005120BC3082
:1001FC00A2000130A300B3201530FB004B30FC00F3
:10020C00BE30FD00FD0B0829FC0B0829FB0B08294F
:10021C0000000C30A4006D20A501A6015120ED308A
:10022C00A2000130A300B320A5010130A60051208B
:10023C00F930A2000130A300B3201530FB004B3085
:10024C00FC00BE30FD00FD0B2929FC0B2929FB0B02
:0C025C00292900000C30A4006D200800CF
:1002680083160313861206120610861006118611CD
:100278002730FC00F530FD00FD0B4029FC0B402920
:100288008312061286120330AA0003201A30FC00DB
:10029800F830FD00FD0B4E29FC0B4E290000033001
:1002A800AA0003201A30FC00F830FD00FD0B5A2983
:1002B800FC0B5A2900000330AA0003201A30FC0066
:1002C800F830FD00FD0B6629FC0B662900000230A2
:1002D800AA0003200330FC009730FD00FD0B7229B3
:1002E800FC0B722900000000A8012830A9002B206F
:1002F8000330FC009730FD00FD0B8029FC0B8029A2
:1003080000000000A8010C30A9002B200330FC00DD
:100318009730FD00FD0B8E29FC0B8E290000000094
:10032800A8010130A9002B200330FC009730FD0004
:10033800FD0B9C29FC0B9C2900000000A80106303D
:10034800A9002B200330FC009730FD00FD0BAA29E3
:0A035800FC0BAA29000000000800B9
:10036200831603178901880134210C30A4006D2003
:06037200CE20B929BB29D1
:100378004E346F346934733469346E3468343A34C3
:10038800543469346E34683428345434503429343D
:0203980000342F
:10039A004E346734613479342034733469346E34BA
:1003AA0068343A346D346D342F3479347934003406
:1003BA0048346F3476346134743465346E3473344B
:1003CA0069346E3468347634693465346E34003492
:0C03DA0048344B34543454343A3400346A
:0C03E6004D345334533456343A34003450
:0A03F2004C346F3470343A34003498
:04400E00F22F000786
:00000001FF
