:02000000B6291F
:1000060083160313061086100611861183126E08D6
:10001600F00070181028061011280614F01815287C
:1000260086101628861470191A2806111B2806151C
:10003600F0191F288611202886150D30FD00FD0BAE
:10004600222886160D30FD00FD0B27288612080093
:1000560083160313061086100611861183126C0888
:10006600031937280616382806120D30FD00FD0B39
:100076003A280D30FD00FD0B3E2886126D08EE0075
:10008600EE0CEE13EE0CEE13EE0CEE13EE0CEE137E
:0C00960003200F306D05EE000320080071
:1000A200831203136A08003A03195A284030EB00FE
:1000B2005B28EB0169086B07F0007008EB00EC01AC
:0A00C20080307004ED002B200800D0
:1000CC00013083120313E702031CE803670868047A
:1000DC0003198928E73081000B1183160C100C18BA
:1000EC0079280B137A280B170B1B7E288B137F2870
:1000FC008B178316811281110111811401100B19B8
:08010C008828852866280800F8
:10011400C02883120313EC010130ED002B200D30B5
:10012400FC00FB30FD00FD0B9528FC0B952800001E
:100134000000CF28E9010130EA005120CF28EC016A
:100144001030ED002B200D30FC00FB30FD00FD0BCA
:10015400A928FC0BA92800000000CF280130EC00DE
:100164006708ED002B200D30FC00FB30FD00FD0B7B
:10017400B928FC0BB92800000000CF288312031310
:1001840067080C3A03198B2867080A3A03199C2854
:0C0194006708083A0319A128B0280800E9
:0E01A0008312031364088A00630882000800BB
:0E01AE0083120313EC011C30ED002B2008001F
:1001BC000C3083120313E7008A20E901EA01512075
:1001CC00E601620866020318F3286608203E8400E4
:1001DC000008E7008A20E60AE728E9010130EA0076
:1001EC005120E6012E0866020318042966082F3EEA
:0E01FC0084000008E7008A20E60AF8280800C0
:10020A0083120313E601EC014030ED002B2066084F
:10021A00393E84000008993A03191D290130EC007F
:10022A006608393E84000008ED002B20E60A0C29F6
:02023A000800BA
:10023C00D0208A110A128000840AE30A0319E40A06
:08024C00F003031D1E29080048
:10025400883083120313E7001330E8006620080097
:1002640083160313861206120610861006118611D1
:100274002730FC00F530FD00FD0B3E29FC0B3E2928
:100284008312061286120330EE0003201A30FC009B
:10029400F830FD00FD0B4C29FC0B4C290000033009
:1002A400EE0003201A30FC00F830FD00FD0B582945
:1002B400FC0B582900000330EE0003201A30FC0028
:1002C400F830FD00FD0B6429FC0B642900000230AA
:1002D400EE0003200330FC009730FD00FD0B702975
:1002E400FC0B702900000000EC012830ED002B20ED
:1002F4000330FC009730FD00FD0B7E29FC0B7E29AA
:1003040000000000EC010C30ED002B200330FC0059
:100314009730FD00FD0B8C29FC0B8C29000000009C
:10032400EC010130ED002B200330FC009730FD0080
:10033400FD0B9A29FC0B9A2900000000EC01063001
:10034400ED002B200330FC009730FD00FD0BA829A5
:0A035400FC0BA829000000000800BF
:0E035E0083120313EC011830ED002B20080071
:10036C003822831603178901880132210521E50102
:10037C00033065020318C829DE202A2183120313D7
:10038C00E50ABE29E501023065020318DB29DE20EF
:10039C00E501103065020318D929D7202A218312D0
:1003AC000313E50ACF29E50AC929E50102306502E4
:1003BC000318EE29DE20E501103065020318EC2944
:1003CC00AF212A2183120313E50AE229E50ADC296D
:0403DC00BD29EF291F
:1004700020308400433083120313F000F530E30092
:080480000130E4001E21080018
:1003EA004234003469342034743401347034203493
:0C03FA00543449344D344534523430340E
:020406000A34B6
:100408004C340234203441346E346834203403349C
:040418000434633411
:10041C00083404340E3401340F3411340F340034E6
:10042C000E3411340E3401340F3411340F340434BF
:10043C000E3411340E3411341F3410340F34003494
:10044C000E34093409341D34093409340E340034A3
:10045C000234043401341334123412340C340034A6
:02046C009934C1
:02046E000E344A
:04400E00F22F000786
:00000001FF
