:020000006D2869
:10000800FF00030E8301B3000A08B4008A017008D8
:10001800A1007C08A0000B1C13280608B2000B10D6
:100028008230FC00DD30FD00FD0B1828FC0B182881
:1000380000000000061829282208AF00220AF00054
:100048007008A200013085003E288618342823084D
:10005800AF00230AF0007008A300023085003E2894
:1000680006193E282E08AF002E0AF0007008AE00D0
:10007800043085002108F0002008FC0034088A00BC
:0A008800330E8300FF0E7F0E090007
:0E0092008312031331088A0030088200080030
:1000A00049208A110A128000840AB00A0319B10A91
:0800B000F003031D50280800B5
:1000B80083120313F8010830FC00700DF80D740862
:1000C800F80203186928F8070310F00DFC0B6128E3
:0200D80008001E
:1000DA0083120313A201A3013F30A4000630A50036
:1000EA005B30A6004F30A7006630A8006D30A9002B
:1000FA007D30AA000730AB007F30AC006F30AD0016
:10010A00AE0183160317890188010313850188014B
:10011A00073086008B178B150B108113073095005B
:10012A00073096000117831285010608B2000A30CB
:10013A00F4002F08F0005C207808F0007008243ED4
:0A014A008400000888009C28A92802
:04400E00F22F000786
:00000001FF
