:020000004F2A85
:100006008316031306108610061186113A08F000AF
:100016007018102883120610122883120614F0187E
:10002600162886101728861470191B2806111C28F6
:100036000615F01920288611212886150D30FD0099
:10004600FD0B232886160D30FD00FD0B2828861291
:020056000800A0
:100058008316031306108610061186113808031933
:100068003828831206163A28831206120D30FD002E
:10007800FD0B3C280D30FD00FD0B40288612831631
:100088003908BA00BA0CBA13BA0CBA13BA0CBA13B4
:10009800BA0CBA1303200F3083163905BA000320AF
:0200A80008004E
:1000AA00831603133608003A03195E284030B70056
:1000BA005F28B70135083707F0007008B700B801A4
:0A00CA0080307004B9002C200800FB
:0E00D400831603132D088A002C0882000800F2
:1000E200AA2883160313B8010130B9002C200D3061
:1000F200FC00FB30FD00FD0B7C28FC0B7C28000083
:100102000000B9288316B5010130B6005520B92880
:100112008316B8011030B9002C200D30FC00FB30E2
:10012200FD00FD0B9228FC0B922800000000B9286C
:1001320001308316B8003408B9002C200D30FC00C1
:10014200FB30FD00FD0BA328FC0BA32800000000E0
:10015200B9288316031334080C3A03197228340899
:100162000A3A031983283408083A03198928992876
:02017200080083
:10017400831603133208AC003308AD006A208A11D9
:100184000A12F00070080319D6283208AC003308AC
:10019400AD006A208A110A12B40071208316031379
:0A01A400B20A0319B30ABA280800D2
:1001AE000C3083160313B400712000000000000011
:1001BE00000083160313B501B60155204E30831689
:1001CE00B2000330B300BA20B5010130B60055209D
:1001DE008316AE0105302E020318FF282E08A53E09
:1001EE0084000008B400712083160313AE0AF128B0
:0201FE000800F7
:100200006A208A110A128000840AAC0A0319AD0A16
:08021000F003031D00290800A2
:1002180083160313AE01B8014030B9002C208316B1
:100228002E08203E84000008993A03192629013037
:10023800B8002E08203E84000008B9002C20831640
:06024800AE0A13290800B4
:10024E008316031307152E08920083128C1092103A
:10025E00121412150C30970083163008F000310876
:10026E00F100F10CF00CF113F10CF00CF113FF3066
:10027E0070058312950083163008F0003108F100E6
:10028E00F10CF00CF1130130F005701851298312A6
:10029E009712532983129716013083163005F000FA
:1002AE0070185C29831217125E29831217168C1888
:0A02BE0061295E298316071108006C
:1002C8000C3083160313B4007120000000000000F6
:1002D800000083160313B501B60155208316AE013D
:1002E8000A302E02031882292E08643E8400000872
:1002F800B400712083160313AE0A7429B5010130C6
:10030800B60055208316AE010B302E02031896292D
:100318002E08593E84000008B40071208316031388
:06032800AE0A882908005E
:10032E000C3083160313B40071200000000000008F
:10033E00000083160313B501B60155205530831600
:10034E00B2000330B300BA20B5010130B60055201B
:10035E008316AE0105302E020318BF292E08A03ECB
:10036E0084000008B400712083160313AE0AB1296D
:02037E00080075
:1003800083160317890188010730031388000130A1
:0403900087000800DA
:1003940083160313861206120610861006118611A0
:1003A4002730FC00F530FD00FD0BD629FC0BD629C7
:1003B40083120612861203308316BA0003201A3001
:1003C400FC00F830FD00FD0BE529FC0BE5290000DD
:1003D40003308316BA0003201A30FC00F830FD0005
:1003E400FD0BF229FC0BF229000003308316BA003E
:1003F40003201A30FC00F830FD00FD0BFF29FC0B34
:10040400FF29000002308316BA0003200330FC00E9
:100414009730FD00FD0B0C2AFC0B0C2A0000000099
:100424008316B8012830B9002C200330FC00973023
:10043400FD00FD0B1B2AFC0B1B2A00000000831689
:10044400B8010C30B9002C200330FC009730FD00BB
:10045400FD0B2A2AFC0B2A2A000000008316B8018F
:100464000130B9002C200330FC009730FD00FD0B57
:10047400392AFC0B392A000000008316B801063023
:10048400B9002C200330FC009730FD00FD0B482AF6
:0A049400FC0B482A000000000800DD
:10049E006023C021CA210C21031383120818682A75
:1004AE001A30FC00F830FD00FD0B5B2AFC0B5B2ABA
:1004BE0000000818672A01308316AA000030AB002E
:1004CE008F2A831288187C2A1A30FC00F830FD001F
:1004DE00FD0B6F2AFC0B6F2A000088187B2A023056
:1004EE008316AA000030AB008F2A831208198F2AB8
:1004FE001A30FC00F830FD00FD0B832AFC0B832A1A
:10050E00000008198F2A03308316AA000030AB00B2
:10051E0083162B0883126F06031D982A6E08831606
:10052E002A060319EF2A83162A088312EE00831671
:10053E002B088312EF00CA2A63308316AE000030F8
:10054E00AF007830B0000030B1002721D720E52A67
:10055E006330AE000030AF004030B0000130B1006B
:10056E0027219721E52AAE01AF01B001B101272164
:10057E006421E52A831297011211831607150C3098
:10058E00B4007120E52A0030831603132B06031DD9
:10059E00D22A01302A060319A32A00302B06031D86
:1005AE00DA2A02302A060319AF2A00302B06031D61
:1005BE00E22A03302A060319BA2AC12A3430FC0073
:1005CE00F130FD00FD0BE92AFC0BE92A00000000CA
:0405DE00532AF02A82
:1006C000203084004E3083120313F000F63083167E
:1006D000AC000230AD000021A03084000A30F000F0
:1006E00044308316AC000330AD0000216E3084002E
:1006F0000230F0005E308316AC000330AD00002104
:10070000AA3084000230F0005C308316AC00033065
:06071000AD00002108000D
:1005EC000034003419341A3404340B34133400340A
:1005FC000E3411340E3411341F3410340F340034D3
:10060C000E34093409341D34093409340E340034E1
:10061C000434093413341234123412340C340034CC
:10062C0000340E341134113411340E3404340034CB
:10063C0001340E3412340C34123412340C340034B1
:10064C00023404340E3411341F3410340F3400349B
:02065C009934CF
:10065E004834043463342034743405347434203410
:06066E006E34683406340E
:100674004C340134203441346E3468342034023430
:0406840003346334A4
:0A06880044343D3438343034253456
:0A06920044343D3433343034253451
:0E069C0066343D3435344B3448347A340034FF
:0E06AA0066343D3435344B3448347A340034F1
:0406B80000340034D6
:0406BC00FF34FF34D4
:04400E00F22F000786
:00000001FF
