:02000000532A81
:100006008316031306108610061186113908F000B0
:100016007018102883120610122883120614F0187E
:10002600162886101728861470191B2806111C28F6
:100036000615F01920288611212886150D30FD0099
:10004600FD0B232886160D30FD00FD0B2828861291
:020056000800A0
:100058008316031306108610061186113708031934
:100068003828831206163A28831206120D30FD002E
:10007800FD0B3C280D30FD00FD0B40288612831631
:100088003808B900B90CB913B90CB913B90CB913BC
:10009800B90CB91303200F3083163805B9000320B3
:0200A80008004E
:1000AA00831603133508003A03195E284030B60058
:1000BA005F28B60134083607F0007008B600B701A9
:0A00CA0080307004B8002C200800FC
:0E00D400831603132C088A002B0882000800F4
:1000E200AA2883160313B7010130B8002C200D3063
:1000F200FC00FB30FD00FD0B7C28FC0B7C28000083
:100102000000B9288316B4010130B5005520B92882
:100112008316B7011030B8002C200D30FC00FB30E4
:10012200FD00FD0B9228FC0B922800000000B9286C
:1001320001308316B7003308B8002C200D30FC00C4
:10014200FB30FD00FD0BA328FC0BA32800000000E0
:10015200B9288316031333080C3A0319722833089B
:100162000A3A031983283308083A03198928992877
:02017200080083
:10017400831603133108AB003208AC006A208A11DD
:100184000A12F00070080319D6283108AB003208AF
:10019400AC006A208A110A12B3007120831603137B
:0A01A400B10A0319B20ABA280800D4
:1001AE000C3083160313B30071200D30831203132A
:1001BE00FD00FD0BE0288316B401B50155202C304F
:1001CE008316B1000330B200BA20B4010130B5007D
:1001DE005520EF0105306F02031800296F08273EE6
:1001EE00840000088316B300712083120313EF0AF4
:0401FE00F1280800DC
:100202006A208A110A128000840AAB0A0319AC0A16
:08021200F003031D012908009F
:10021A0083120313EF018316B7014030B8002C2074
:10022A006F082C3E84000008993A031929290130E5
:10023A008316B70083126F082C3E840000088316C9
:0A024A00B8002C20EF0A1529080067
:1002540083160313071583128C10921012141215AF
:100264000C30970083162F08F0003008F100F10CD1
:10027400F00CF113F10CF00CF113FF307005831244
:10028400950083162F08F0003008F100F10CF00CF3
:10029400F1130130F0057018522983129712542972
:1002A40083129716013083162F05F00070185D290C
:1002B400831217125F29831217168C1862295F297B
:0602C4008316071108007B
:1002CA000C3083160313B30071200D30831203130D
:1002DA00FD00FD0B6E298316B401B5015520EF010F
:1002EA000A306F02031884296F08653E84000008EB
:1002FA008316B300712083120313EF0A752983163C
:10030A00B4010130B5005520EF010B306F0203181C
:10031A0099296F08A03E840000088316B300712053
:0A032A0083120313EF0A8A2908006A
:100334000C3083160313B30071200D3083120313A2
:10034400FD00FD0BA3298316B401B50155203330FC
:100354008316B1000330B200BA20B4010130B500F5
:100364005520EF0105306F020318C3296F08223EA0
:10037400840000088316B300712083120313EF0A6C
:04038400B429080090
:100388008316031789018801073003138800013099
:0403980087000800D2
:10039C008316031386120612061086100611861198
:1003AC002730FC00F530FD00FD0BDA29FC0BDA29B7
:1003BC0083120612861203308316B90003201A30FA
:1003CC00FC00F830FD00FD0BE929FC0BE9290000CD
:1003DC0003308316B90003201A30FC00F830FD00FE
:1003EC00FD0BF629FC0BF629000003308316B9002F
:1003FC0003201A30FC00F830FD00FD0B032AFC0B27
:10040C00032A000002308316B90003200330FC00DD
:10041C009730FD00FD0B102AFC0B102A0000000089
:10042C008316B7012830B8002C200330FC0097301D
:10043C00FD00FD0B1F2AFC0B1F2A00000000831679
:10044C00B7010C30B8002C200330FC009730FD00B5
:10045C00FD0B2E2AFC0B2E2A000000008316B70180
:10046C000130B8002C200330FC009730FD00FD0B50
:10047C003D2AFC0B3D2A000000008316B701063014
:10048C00B8002C200330FC009730FD00FD0B4C2AEB
:0A049C00FC0B4C2A000000000800D1
:1004A6003A23C421CE210D218312031308186A2A88
:1004B6001A30FC00F830FD00FD0B5F2AFC0B5F2AAA
:1004C600000008186A2A0130A0000030A100881830
:1004D6007B2A1A30FC00F830FD00FD0B702AFC0B5D
:1004E600702A000088187B2A0230A0000030A10084
:1004F60008198C2A1A30FC00F830FD00FD0B812A01
:10050600FC0B812A000008198C2A0330A000003059
:10051600A10000302106031D922A01302006031D8A
:10052600A02A63308316AD000030AE007830AF00ED
:100536000030B0002A21D720CB2A00302106031D27
:10054600A62A02302006031DB42A63308316AD00A6
:100556000030AE004030AF000130B0002A219A21B1
:10056600CB2A00302106031DBA2A03302006031DBC
:10057600C42A8316AD01AE01AF01B0012A2165215F
:10058600CB2A97011211831607150C30B300712080
:04059600572ACC2AEA
:10067400203084004F3083120313F000D2308316ED
:10068400AB000230AC000121A03084000B30831297
:10069400F00021308316AB000330AC0001210800C8
:0405A40000340034EB
:0A05A80044343D3438343034253437
:0A05B20044343D3433343034253432
:1005BC000034003419341A3404340B34133400343A
:1005CC000E3411340E3411341F3410340F34003403
:1005DC000E34093409341D34093409340E34003412
:1005EC000434093413341234123412340C340034FD
:1005FC0000340E341134113411340E3404340034FC
:10060C0001340E3412340C34123412340C340034E1
:10061C00023404340E3411341F3410340F340034CB
:02062C009934FF
:10062E004C340134203441346E3468342034023476
:04063E0003346334EA
:10064200483404346334203474340534743420342C
:060652006E34683406342A
:0E06580066343D3435344B3448347A34003443
:0E06660066343D3435344B3448347A34003435
:04400E00F22F000786
:00000001FF
