:02000000532A81
:100006008316031306108610061186113A08F000AF
:100016007018102883120610122883120614F0187E
:10002600162886101728861470191B2806111C28F6
:100036000615F01920288611212886150D30FD0099
:10004600FD0B232886160D30FD00FD0B2828861291
:020056000800A0
:100058008316031306108610061186113808031933
:100068003828831206163A28831206120D30FD002E
:10007800FD0B3C280D30FD00FD0B40288612831631
:100088003908BA00BA0CBA13BA0CBA13BA0CBA13B4
:10009800BA0CBA1303200F3083163905BA000320AF
:0200A80008004E
:1000AA00831603133608003A03195E284030B70056
:1000BA005F28B70135083707F0007008B700B801A4
:0A00CA0080307004B9002C200800FB
:0E00D400831603132F088A002E0882000800EE
:1000E200AA2883160313B8010130B9002C200D3061
:1000F200FC00FB30FD00FD0B7C28FC0B7C28000083
:100102000000B9288316B5010130B6005520B92880
:100112008316B8011030B9002C200D30FC00FB30E2
:10012200FD00FD0B9228FC0B922800000000B9286C
:1001320001308316B8003408B9002C200D30FC00C1
:10014200FB30FD00FD0BA328FC0BA32800000000E0
:10015200B9288316031334080C3A03197228340899
:100162000A3A031983283408083A03198928992876
:02017200080083
:10017400831603133208AE003308AF006A208A11D5
:100184000A12F00070080319D6283208AE003308AA
:10019400AF006A208A110A12B40071208316031377
:0A01A400B20A0319B30ABA280800D2
:1001AE000C3083160313B40071200D308312031329
:1001BE00FD00FD0BE0288316B501B6015520523027
:1001CE008316B2000330B300BA20B5010130B60079
:1001DE005520EF0105306F02031800296F08A53E68
:1001EE00840000088316B400712083120313EF0AF3
:0401FE00F1280800DC
:100202006A208A110A128000840AAE0A0319AF0A10
:08021200F003031D012908009F
:10021A0083120313EF018316B8014030B9002C2072
:10022A006F08203E84000008993A031929290130F1
:10023A008316B80083126F08203E840000088316D4
:0A024A00B9002C20EF0A1529080066
:1002540083160313071583128C10921012141215AF
:100264000C30970083163008F0003108F100F10CCF
:10027400F00CF113F10CF00CF113FF307005831244
:10028400950083163008F0003108F100F10CF00CF1
:10029400F1130130F0057018522983129712542972
:1002A40083129716013083163005F00070185D290B
:1002B400831217125F29831217168C1862295F297B
:0602C4008316071108007B
:1002CA000C3083160313B40071200D30831203130C
:1002DA00FD00FD0B6E298316B501B6015520EF010D
:1002EA000A306F02031884296F08643E84000008EC
:1002FA008316B400712083120313EF0A752983163B
:10030A00B5010130B6005520EF010B306F0203181A
:10031A0099296F08593E840000088316B400712099
:0A032A0083120313EF0A8A2908006A
:100334000C3083160313B40071200D3083120313A1
:10034400FD00FD0BA3298316B501B60155205930D4
:100354008316B2000330B300BA20B5010130B600F1
:100364005520EF0105306F020318C3296F08A03E22
:10037400840000088316B400712083120313EF0A6B
:04038400B429080090
:100388008316031789018801073003138800013099
:0403980087000800D2
:10039C008316031386120612061086100611861198
:1003AC002730FC00F530FD00FD0BDA29FC0BDA29B7
:1003BC0083120612861203308316BA0003201A30F9
:1003CC00FC00F830FD00FD0BE929FC0BE9290000CD
:1003DC0003308316BA0003201A30FC00F830FD00FD
:1003EC00FD0BF629FC0BF629000003308316BA002E
:1003FC0003201A30FC00F830FD00FD0B032AFC0B27
:10040C00032A000002308316BA0003200330FC00DC
:10041C009730FD00FD0B102AFC0B102A0000000089
:10042C008316B8012830B9002C200330FC0097301B
:10043C00FD00FD0B1F2AFC0B1F2A00000000831679
:10044C00B8010C30B9002C200330FC009730FD00B3
:10045C00FD0B2E2AFC0B2E2A000000008316B8017F
:10046C000130B9002C200330FC009730FD00FD0B4F
:10047C003D2AFC0B3D2A000000008316B801063013
:10048C00B9002C200330FC009730FD00FD0B4C2AEA
:0A049C00FC0B4C2A000000000800D1
:1004A6006623C421CE210D218312031308186C2A5A
:1004B6008230FC00DD30FD00FD0B5F2AFC0B5F2A5D
:1004C6000000000008186C2A01308316AC000030CA
:1004D600AD0083128818802A8230FC00DD30FD00D2
:1004E600FD0B732AFC0B732A000000008818802A73
:1004F60002308316AC000030AD0083120819942A2E
:100506008230FC00DD30FD00FD0B872AFC0B872ABC
:10051600000000000819942A03308316AC0000304E
:10052600AD0083162B082D06031D9B2A2C082A06D0
:100536000319F32A2C08AA002D08AB00D12A83122E
:100546006E088400633080000030840A80007830B2
:100556008316B0000030B1002A21D720F32A831277
:100566006E088400633080000030840A80004030CA
:100576008316B0000130B1002A219A21F32A83168E
:10058600B001B1012A216521F32A831297011211C4
:10059600831607150C30B4007120F32A0030831639
:1005A60003132D06031DD92A01302C060319A22A8E
:1005B60000302D06031DE12A02302C060319B22A4B
:1005C60000302D06031DE92A03302C060319C22A22
:1005D60000302D06031DF12A00302C060319C82A07
:0405E600572AF42A72
:1006CC00203084004E3083120313F000FA3083166E
:1006DC00AE000230AF000121A03084000A3083123A
:1006EC00F00048308316AE000330AF0001216E30AD
:1006FC00840001308312F00064308316AE000330A6
:10070C00AF000121AA30840004308312F000603065
:0C071C008316AE000330AF00012108007E
:1005F4000034003419341A3404340B341334003402
:100604000E3411340E3411341F3410340F340034CA
:100614000E34093409341D34093409340E340034D9
:100624000434093413341234123412340C340034C4
:1006340000340E341134113411340E3404340034C3
:1006440001340E3412340C34123412340C340034A9
:10065400023404340E3411341F3410340F34003493
:020664009934C7
:100666004834043463342034743405347434203408
:060676006E346834063406
:10067C004C340134203441346E3468342034023428
:04068C00033463349C
:0A06900044343D343834303425344E
:0A069A0044343D3433343034253449
:0E06A40066343D3435344B3448347A340034F7
:0E06B20066343D3435344B3448347A340034E9
:0406C000FF34FF34D0
:0406C40000340034CA
:0206C80092346A
:04400E00F22F000786
:00000001FF
