:020000000E29C7
:100006008316031306108610061186118312300814
:10001600F00070181028061011280614F01815287C
:1000260086101628861470191A2806111B2806151C
:10003600F0191F288611202886150D30FD00FD0BAE
:10004600222886160D30FD00FD0B27288612080093
:1000560083160313061086100611861183122E08C6
:10006600031937280616382806120D30FD00FD0B39
:100076003A280D30FD00FD0B3E2886122F08B000F1
:10008600B00CB013B00CB013B00CB013B00CB0136E
:0C00960003200F302F05B00003200800ED
:1000A200831203132C08003A03195A284030AD007A
:1000B2005B28AD012B082D07F0007008AD00AE01E2
:0A00C20080307004AF002B2008000E
:1000CC009C2883120313AE010130AF002B200D309E
:1000DC00FC00FB30FD00FD0B7128FC0B71280000AF
:1000EC000000AB28AB010130AC005120AB28AE01B5
:1000FC001030AF002B200D30FC00FB30FD00FD0B51
:10010C008528FC0B852800000000AB280130AE00D0
:10011C002A08AF002B200D30FC00FB30FD00FD0B3E
:10012C009528FC0B952800000000AB2883120313C4
:10013C002A080C3A031967282A080A3A031978285E
:0C014C002A08083A03197D288C280800B6
:0E0158008312031326088A002508820008007F
:10016600831203132808A5002908A600AC208A11CB
:100176000A12F00070080319CD282808A5002908DE
:10018600A600AC208A110A12AA006620A80A031942
:06019600A90AB3280800CD
:10019C00831603130715A43092000C3083129700BA
:1001AC0031309500971617168C10053092008C186C
:0A01BC00E028DD2883160711080073
:1001C6000C3083120313AA006620AB01AC01512048
:1001D6002430A8000130A900B320AB010130AC00E7
:1001E6005120A70105302702031801292708203EC0
:0E01F60084000008AA006620A70AF528080069
:10020400AC208A110A128000840AA50A0319A60ADE
:08021400F003031D022908009C
:10021C00443083120313A0003D30A1003330A20000
:10022C003030A300A4018316031789018801013023
:0C023C0003138800E320CE202029232992
:0E02480066343D3433344B3448347A34003459
:04400E00F22F000786
:00000001FF
