:02000000A92A2B
:1000060083120313FB01FA01F901F801A001730D34
:10001600F80D7408F8027508031C750FF9027608C6
:10002600031C760FFA027708031C770FFB02000108
:10003600031C0130A002F30D0730FC00730DF80D10
:10004600F90DFA0DFB0DA00D7408731C3C28F8027F
:100056007508031C750FF9027608031C760FFA0261
:100066007708031C770FFB020001031C0130A00276
:100076004D28F80775080318750FF9077608031851
:10008600760FFA0777080318770FFB0700010318A6
:100096000130A007F30DFC0B2128720DF80DF90DA8
:1000A600FA0DFB0DA00D7408731C6B28F802750879
:1000B600031C750FF9027608031C760FFA027708FF
:1000C600031C770FFB020001031C0130A0027C28F1
:1000D600F80775080318750FF90776080318760FE1
:1000E600FA0777080318770FFB070001031801309A
:1000F600A007F20D0730FC00720DF80DF90DFA0D90
:10010600FB0DA00D7408721C9A28F8027508031CD2
:10011600750FF9027608031C760FFA027708031C9E
:10012600770FFB020001031C0130A002AB28F80781
:1001360075080318750FF90776080318760FFA077E
:1001460077080318770FFB07000103180130A00793
:10015600F20DFC0B7F28710DF80DF90DFA0DFB0D54
:10016600A00D7408721CC928F8027508031C750FC7
:10017600F9027608031C760FFA027708031C770F3C
:10018600FB020001031C0130A002DA28F8077508FB
:100196000318750FF90776080318760FFA0777081C
:1001A6000318770FFB07000103180130A007F10DB4
:1001B6000730FC00710DF80DF90DFA0DFB0DA00DC1
:1001C6007408711CF828F8027508031C750FF902EB
:1001D6007608031C760FFA027708031C770FFB02DA
:1001E6000001031C0130A0020929F807750803184D
:1001F600750FF90776080318760FFA0777080318BC
:10020600770FFB07000103180130A007F10DFC0B67
:10021600DD28700DF80DF90DFA0DFB0DA00D740813
:10022600711C2729F8027508031C750FF902760858
:10023600031C760FFA027708031C770FFB020001F6
:10024600031C0130A0023829F80775080318750F3A
:10025600F90776080318760FFA0777080318770F59
:10026600FB07000103180130A007F00D0730FC0062
:10027600700DF80DF90DFA0DFB0DA00D7408701C2C
:100286005629F8027508031C750FF9027608031C37
:10029600760FFA027708031C770FFB020001031C96
:1002A6000130A0026729F80775080318750FF907CA
:1002B60076080318760FFA0777080318770FFB07F7
:1002C600000103180130A007F00DFC0B3B29701844
:1002D6007A297408F80775080318750FF907760860
:1002E6000318760FFA0777080318770FFB0708003D
:1002F600831203132230FC00F801F901FA01FB0115
:10030600FC030319B1290310FB0CFA0CF90CF80CC9
:10031600F30CF20CF10CF00C031C8329FC030319FB
:10032600A3297408F80775080318750FF9077608E6
:100336000318760FFA0777080318770FFB07872944
:100346007408F80775080318750FF9077608031877
:0E035600760FFA0777080318770FFB070800E9
:0E0364008312031336088A0035088200080051
:10037200831603178801043089000313850186144C
:0403820088010800E6
:10038600831203133708F0003808F100F201F30175
:100396008830F4001330F5000030F6000030F70026
:1003A6007B21FF30F4000330F500F601F70103204E
:1003B6007008BA007108BB007208BC007308BD0063
:1003C6003A08AB003B08AC003C08AD003D08AE0067
:1003D600E830F4000330F500F601F7013A08F000C2
:1003E6003B08F1003C08F2003D08F30003207008CA
:1003F600B4006430F400F501F601F7013A08F000A4
:100406003B08F1003C08F2003D08F30003200A30E7
:10041600F400F501F601F70103207808F0007908E9
:10042600F1007A08F2007B08F3007008B3000A3086
:10043600F400F501F601F7013A08F0003B08F10077
:100446003C08F2003D08F30003200A30F400F501F1
:10045600F601F70103207808F0007908F1007A0820
:10046600F2007B08F3007008B2000A30F400F501D0
:10047600F601F7013A08F0003B08F1003C08F200EB
:100486003D08F30003207808F0007908F1007A08A7
:10049600F2007B08F3007008B100B901043039029C
:1004A60003187B2A3908313E84000008F0007008E2
:1004B600213E8400000888003908F1000130F00070
:1004C600710803196A2AF00D7010FF3E642A70083D
:1004D60085000230FB000430FC00BA30FD00FD0B45
:1004E600722AFC0B722AFB0B722A0000B90A512AE7
:0204F6000800FC
:1004F800B2218A110A128000840AB50A0319B60AC1
:08050800F003031D7C2A08002A
:10051000213083120313FD00FD0B8C2A9F149F1CB6
:10052000922A8F2A1E08F100F00183161E08F0049B
:060530000030F104080098
:10053600831203131F139F179F161F129F151F1158
:0C0546009F101F14803083169F000800D7
:100552003F3083120313A1000630A2005B30A300D8
:100562004F30A4006630A5006D30A6007D30A70094
:100572000730A8007F30A9006F30AA00AB01AC01A0
:10058200AD01AE01AF01B001B9219B2288227008F2
:100592008312AF007108B0007008B7007108B8008C
:0605A200C321C72AD32A81
:04400E00F22F000786
:00000001FF
