:02000000422B91
:0E000600F201F101F001F801F30100300800F1
:100014007B15FB1F14280130F300F201F101F001FC
:08002400FA0DF20CFF30080098
:08002C00FA1FF2130030080076
:10003400FB14FB1F2428FF30F300F200F100F00052
:08004400FA0DF20CFF30080078
:10004C007B14FB1F3128F201FA1FFF30F200F10084
:0A005C00F000FA0DF20CFF3008006E
:100066007C186928FC183A287C1988283328A001AE
:100076007208031D5A287108F2007008F10078080A
:10008600F000F801A0157208031D5A287108F20045
:100096007008F100F001A01120167208031D5A28FD
:1000A6007108F200F101A015720803197C282008D6
:1000B600F302031D031C80280310F21B6928F80DA8
:1000C600F00DF10DF20DF30B602880287B1B701CE0
:1000D6008428F81F8428F00A0319F10A0319F20A82
:1000E600031D8428F20CF10CF00CF30A031988287E
:1000F60084280130FC0003208B280230FC000A20F3
:100106008B280430FC0016208B280830FC001A20AF
:0401160000000800DD
:10011A00A0017208031DA2287108F2007008F100FC
:10012A00F001A0157208031DA2287108F200F1015E
:10013A00A011201672080319B0282008F302031D23
:10014A00031CB4280310F21BB828F00DF10DF20DB0
:10015A00F30BA828B4280130FC000320BB28023086
:0E016A00FC000A20BB280430FC001620080010
:06017800FB15FF3008003A
:10017E008312031372087606A000F801F9017308C2
:10018E007702031CE2287708FD007308F7007D084C
:10019E00F3007608FD007208F6007D08F20075087F
:1001AE00FD007108F5007D08F1007408FD0070086F
:1001BE00F4007D08F000770803195B297208FA0035
:1001CE00F217F61777087302F7000319152908308E
:1001DE007702031C0B29F7007408F9007508F40068
:1001EE007608F500F60108307702031C0B29F7009C
:1001FE007408F9007508F400F50108307702031C45
:10020E000B297A08F2005B297708031915290310C8
:10021E00F60CF50CF40CF90CF70B0E29A01F222985
:10022E00F909F409F509F609F90A0319F40A03198B
:10023E00F50A0319F60A7908F80774080318740FFB
:10024E00F00775080318750FF10776080318760F77
:10025E00F207A01B3B29031C4B29F20CF10CF00CEE
:10026E00F80CF30F4B29572903184F29F809F009F9
:10027E00F109F209F80A0319F00A0319F10A031930
:10028E00F20A8030FA0653290130FC0033205D2932
:10029E000230FC0033205D290430FC008D205D29E6
:1002AE000830FC001A205D290030FC000000080018
:1002BE0083120313FB017308031D77080319B62974
:1002CE0072087606FA007708F3077E30031C73294E
:1002DE00F3020318B9297629F302031CBC2972080C
:1002EE00F8007108FC007008FD00F817F6170310EF
:1002FE00F201F101F0011830A0007D1C9029740864
:10030E00F00775080318750FF10776080318760FB6
:10031E00F207F20CF10CF00CF80CFC0CFD0C0310B7
:10032E00A00B8429F21BA029F80DF00DF10DF20D92
:10033E00F3037B1B701CB229F81FB229F00A0319B4
:10034E00F10A0319F20A031DB229F20CF10CF00C9A
:10035E00F30A0319B929FA1FF2130030BE2901302E
:10036E000320BE2902301A20BE2904300A200000C4
:02037E00080075
:0E0380008312031325088A0024088200080057
:10038E0083120313FB01FC01FA0173080319F4290C
:10039E00FA13F2178630F302F31BD8290319D82962
:1003AE00F629F309F30A08307302031CE529F3005A
:1003BE00F20DF2017308031D0310EC2973080319E3
:1003CE00EC290310F20CF30BE8297B1B721CF429A9
:1003DE00031CF429F20A0319FB29F101FE297B14EF
:1003EE00FB1F012AF101012A0130FC00032A003013
:1003FE00FC00032AFF30FC00FC080319072A262004
:06040E007208F000080076
:10041400831203137408003A031D252A7508003A51
:10042400031D252A7608003A031D252A7708003A79
:10043400031D252AFF30F000FF30F1007F30F20069
:10044400FF30F300C02A8312031377080319B42A78
:1004540073080319B72A720876068039FA00F2176E
:10046400F617A0017208F8007108FC007008FD007E
:100474007408FD027508031C750FFC027608031C42
:10048400760FF802F801FC01FD01031C502A031049
:10049400F20CF10CF00CF80C0130A0007708F30218
:1004A400031C5A2A7E302007F3070318BA2A5F2A4E
:1004B4007E302007F307031CBD2A1830FA07FD0D10
:1004C400FC0DF80DF00DF10DF20DA00D7408F00205
:1004D4007508031C750FF1027608031C760FF202EF
:1004E400760DA004201C782A7D14832A7408F00752
:1004F40075080318750FF10776080318760AF207D2
:100504007D10FA031F307A05031D612A7B1B7D1CB5
:10051400AA2A0310F00DF10DF20DA00D7408F002DB
:100524007508031C750FF1027608031C760FF2029E
:10053400760D20040139FD070318FC0A0319F80A93
:10054400031DAA2AF80CFC0CFD0CF30A0319BA2AA1
:10055400FA1FF8137808F2007C08F1007D08F00017
:100564000030BF2A0130BC20BF2A02300320BF2A3A
:0E05740004301A20BF2A08300A2000000800B8
:10058200831203137008F8007108F000F101F20100
:10059200F301FB01FC019630F300FA017008F1004F
:0C05A2007808F000F801F2018D2008003C
:1005AE00213083120313FD00FD0BDB2A9F149F1CC9
:1005BE00E12ADE2A1E08F100F00183161E08F0045F
:0605CE000030F1040800FA
:1005D400831203139F171F139F121F169F151F11BA
:0C05E4009F101F14803083169F00080039
:1005F000831203132708033C031D002B2608FF3C2E
:100600000318062BFF30A6000330A7002608F000D1
:100610002708F100C1220030F4000030F5007A30E4
:10062000F6008730F7005F210030F4008030F500DD
:100630007F30F6008730F700BF200030F400C03074
:10064000F5007F30F6008830F7000A22C7217008D5
:08065000A100700888000800F9
:100658008316031789018801031388018914031776
:040668000817080067
:10066C00C0218A110A128000840AA40A0319A50A5F
:08067C00F003031D362B0800FA
:1006840083120313A101A201A3012C23EA22D7227E
:1006940070088312A2007108A3007008A6007108F4
:0806A400A700F822492B552B99
:04400E00F22F000786
:00000001FF
