:020000008D2B46
:0E000600F201F101F001F801F30100300800F1
:100014007B15FB1F14280130F300F201F101F001FC
:08002400FA0DF20CFF30080098
:08002C00FA1FF2130030080076
:10003400FB14FB1F2428FF30F300F200F100F00052
:08004400FA0DF20CFF30080078
:10004C007C185C28FC182D287C197B282628A001FC
:10005C007208031D4D287108F2007008F100780831
:10006C00F000F801A0157208031D4D287108F2006C
:10007C007008F100F001A01120167208031D4D2824
:10008C007108F200F101A015720803196F282008FD
:10009C00F302031D031C73280310F21B5C28F80DDC
:1000AC00F00DF10DF20DF30B532873287B1B701C14
:1000BC007728F81F7728F00A0319F10A0319F20AB6
:1000CC00031D7728F20CF10CF00CF30A03197B28B2
:1000DC0077280130FC0003207E280230FC000A2027
:1000EC007E280430FC0016207E280830FC001A20E4
:0400FC0000000800F8
:06010000FB15FF300800B2
:100106007B14FB1F8E28F201FA1FFF30F200F1006C
:0A011600F000FA0DF20CFF300800B3
:10012000A0017208031DA5287108F2007008F100F3
:10013000F001A0157208031DA5287108F200F10155
:10014000A011201672080319B3282008F302031D1A
:10015000031CB7280310F21BBB28F00DF10DF20DA4
:10016000F30BAB28B7280130FC000320BE28023077
:0E017000FC000A20BE280430FC001620080007
:10017E00831203137008F8007108F000F101F20108
:10018E00F301FB01FC019630F300FA017008F10057
:0C019E007808F000F801F2019020080041
:1001AA0083120313F8010830FC00700DF80D74086F
:1001BA00F8020318E228F8070310F00DFC0BDA28FE
:0201CA0008002B
:1001CC00831203137408003A031D01297508003AC1
:1001DC00031D01297608003A031D01297708003A0E
:1001EC00031D0129FF30F000FF30F1007F30F200D9
:1001FC00FF30F3009C29831203137708031990290D
:10020C00730803199329720876068039FA00F217DD
:10021C00F617A0017208F8007108FC007008FD00C8
:10022C007408FD027508031C750FFC027608031C8C
:10023C00760FF802F801FC01FD01031C2C290310B8
:10024C00F20CF10CF00CF80C0130A0007708F30262
:10025C00031C36297E302007F307031896293B2907
:10026C007E302007F307031C99291830FA07FD0D7F
:10027C00FC0DF80DF00DF10DF20DA00D7408F0024F
:10028C007508031C750FF1027608031C760FF20239
:10029C00760DA004201C54297D145F297408F007E6
:1002AC0075080318750FF10776080318760AF2071C
:1002BC007D10FA031F307A05031D3D297B1B7D1C25
:1002CC0086290310F00DF10DF20DA00D7408F0024B
:1002DC007508031C750FF1027608031C760FF202E9
:1002EC00760D20040139FD070318FC0A0319F80ADE
:1002FC00031D8629F80CFC0CFD0CF30A0319962936
:10030C00FA1FF8137808F2007C08F1007D08F00061
:10031C0000309B29013080209B29023003209B292F
:0E032C0004301A209B2908300A200000080027
:0E033A008312031325088A002408820008009D
:1003480083120313FB017308031D77080319FB29A4
:1003580072087606FA007708F3077E30031CB8297E
:10036800F3020318FE29BB29F302031C012A7208B1
:10037800F8007108FC007008FD00F817F617031064
:10038800F201F101F0011830A0007D1CD529740894
:10039800F00775080318750FF10776080318760F2C
:1003A800F207F20CF10CF00CF80CFC0CFD0C03102D
:1003B800A00BC929F21BE529F80DF00DF10DF20D7E
:1003C800F3037B1B701CF729F81FF729F00A0319A0
:1003D800F10A0319F20A031DF729F20CF10CF00CCB
:1003E800F30A0319FE29FA1FF2130030032A013019
:1003F8000320032A02301A20032A04300A200000AE
:020408000800EA
:10040A008312031372087606A000F801F901730833
:10041A007702031C282A7708FD007308F7007D0875
:10042A00F3007608FD007208F6007D08F2007508F0
:10043A00FD007108F5007D08F1007408FD007008E0
:10044A00F4007D08F00077080319A12A7208FA005F
:10045A00F217F61777087302F70003195B2A0830B8
:10046A007702031C512AF7007408F9007508F40092
:10047A007608F500F60108307702031C512AF700C6
:10048A007408F9007508F400F50108307702031CB6
:10049A00512A7A08F200A12A770803195B2A031065
:1004AA00F60CF50CF40CF90CF70B542AA01F682A69
:1004BA00F909F409F509F609F90A0319F40A0319FD
:1004CA00F50A0319F60A7908F80774080318740F6D
:1004DA00F00775080318750FF10776080318760FE9
:1004EA00F207A01B812A031C912AF20CF10CF00CD2
:1004FA00F80CF30F912A9D2A0318952AF809F00996
:10050A00F109F209F80A0319F00A0319F10A0319A1
:10051A00F20A8030FA06992A0130FC002620A32A22
:10052A000230FC002620A32A0430FC009020A32AD3
:10053A000830FC001A20A32A0030FC000000080042
:10054A0083120313FB01FC01FA0173080319D22A6F
:10055A00FA13F2178630F302F31BB62A0319B62AE6
:10056A00D42AF309F30A08307302031CC32AF300DE
:10057A00F20DF2017308031D0310CA2A7308031946
:10058A00CA2A0310F20CF30BC62A7B1B721CD22A4E
:10059A00031CD22AF20A0319D92AF101DC2A7B1494
:1005AA00FB1FDF2AF101DF2A0130FC00E12A0030BB
:1005BA00FC00E12AFF30FC00FC080319E52A83202D
:0605CA007208F0000800B9
:1005D000213083120313FD00FD0BEC2A9F149F1C96
:1005E000F22AEF2A1E08F100F00183161E08F0041B
:0605F0000030F1040800D8
:1005F600831203139F171F139F121F169F151F1198
:0C0606009F101F14803083169F00080016
:10061200831203132708033C031D112B2608FF3CFA
:100622000318172BFF30A6000330A7002608F0009E
:100632002708F100BF200030F4000030F5007A30C6
:10064200F6008730F700A4210030F4000030F500F6
:100652004830F6008630F70005220030F400C03042
:10066200F5007F30F6008830F700E620A5227008FA
:10067200A30070088800A801043028020318742B14
:100682002808F1000130F000710803194C2BF00D1D
:100692007010FF3E462B700886000A30F4002308D3
:1006A200F000D5207808F0007008F100F10D71100B
:1006B200F10D7110F10D7110710887000A30F4000C
:1006C2002308F000D5207008A3000330FB00083097
:1006D200FC007730FD00FD0B6C2BFC0B6C2BFB0B35
:0806E2006C2BA80A3D2B080057
:1006EA00831603178901880103138801870186018C
:0806FA0089140317081708001A
:100702009D218A110A128000840AA40A0319A50AEB
:08071200F003031D812B080018
:10071A0083120313A101A201A3017523FB22E8227C
:10072A0070088312A1007108A2007008A60071085F
:08073A00A7000923942BA02B5A
:04400E00F22F000786
:00000001FF
