:02000000432A91
:0E000600F201F101F001F801F30100300800F1
:08001400FA1FF213003008008E
:10001C007B15FB1F18280130F300F201F101F001F0
:08002C00FA0DF20CFF30080090
:06003400FB15FF3008007F
:10003A007B14FB1F2828F201FA1FFF30F200F1009F
:0A004A00F000FA0DF20CFF30080080
:10005400A0017208031D3F287108F2007008F10026
:10006400F001A0157208031D3F287108F200F10188
:10007400A0112016720803194D282008F302031D4D
:10008400031C51280310F21B5528F00DF10DF20D3D
:10009400F30B452851280130FC0003205828023076
:0E00A400FC000E2058280430FC000A20080042
:1000B200FB14FB1F6328FF30F300F200F100F00095
:0800C200FA0DF20CFF300800FA
:1000CA00831203137008F8007108F000F101F201BD
:1000DA00F301FB01FC019630F300FA017008F1000C
:0C00EA007808F000F801F2012A2008005C
:1000F60083120313FB017308031D77080319D22823
:1001060072087606FA007708F3077E30031C8F28FC
:10011600F3020318D5289228F302031CD828720884
:10012600F8007108FC007008FD00F817F6170310B8
:10013600F201F101F0011830A0007D1CAC28740812
:10014600F00775080318750FF10776080318760F80
:10015600F207F20CF10CF00CF80CFC0CFD0C031081
:10016600A00BA028F21BBC28F80DF00DF10DF20D26
:10017600F3037B1B701CCE28F81FCE28F00A031948
:10018600F10A0319F20A031DCE28F20CF10CF00C49
:10019600F30A0319D528FA1FF2130030DA280130C2
:1001A6000320DA2802305920DA2804300E20000015
:0201B60008003F
:0E01B8008312031325088A0024088200080021
:1001C60083120313FB01FC01FA01730803191029BA
:1001D600FA13F2178630F302F31BF4280319F428F6
:1001E6001229F309F30A08307302031C0129F300EC
:1001F600F20DF2017308031D031008297308031991
:1002060008290310F20CF30B04297B1B721C10291E
:10021600031C1029F20A03191729F1011A297B1464
:10022600FB1F1D29F1011D290130FC001F2900308B
:10023600FC001F29FF30FC00FC08031923291D20A0
:060246007208F000080040
:10024C00831203137408003A031D41297508003A00
:10025C00031D41297608003A031D41297708003A0D
:10026C00031D4129FF30F000FF30F1007F30F20018
:10027C00FF30F300DC298312031377080319D0290C
:10028C0073080319D329720876068039FA00F2171D
:10029C00F617A0017208F8007108FC007008FD0048
:1002AC007408FD027508031C750FFC027608031C0C
:1002BC00760FF802F801FC01FD01031C6C290310F8
:1002CC00F20CF10CF00CF80C0130A0007708F302E2
:1002DC00031C76297E302007F3070318D6297B29C7
:1002EC007E302007F307031CD9291830FA07FD0DBF
:1002FC00FC0DF80DF00DF10DF20DA00D7408F002CF
:10030C007508031C750FF1027608031C760FF202B8
:10031C00760DA004201C94297D149F297408F007E5
:10032C0075080318750FF10776080318760AF2079B
:10033C007D10FA031F307A05031D7D297B1B7D1C64
:10034C00C6290310F00DF10DF20DA00D7408F0028A
:10035C007508031C750FF1027608031C760FF20268
:10036C00760D20040139FD070318FC0A0319F80A5D
:10037C00031DC629F80CFC0CFD0CF30A0319D62935
:10038C00FA1FF8137808F2007C08F1007D08F000E1
:10039C000030DB2901301A20DB2902300320DB2955
:0E03AC0004305920DB2908300E200000080024
:1003BA00213083120313FD00FD0BE1299F149F1CBA
:1003CA00E729E4291E08F100F00183161E08F0044B
:0603DA000030F1040800F0
:1003E000831203139F171F139F121F169F151F11B0
:0C03F0009F101F14803083169F0008002F
:1003FC00831203132708033C031D062A2608FF3C1F
:10040C0003180C2AFF30A6000330A7002608F000C2
:10041C002708F10065200030F4008030F5007F30B3
:10042C00F6008730F7007B200030F400C030F50078
:10043C007F30F6008830F7002621E3207008A300F7
:0A044C000030F1007008880008007D
:100456008316031789018801031388018701860122
:080466008914031708170800B0
:10046E00DC208A110A128000840AA40A0319A50A44
:08047E00F003031D372A0800FA
:1004860083120313A101A201A3012B22F021DD2176
:1004960070088312A1007108A2007008A6007108F6
:0804A600A700FE214A2A562A94
:04400E00F22F000786
:00000001FF
