:020000003C289A
:1000060083120313220888000530FB000F30FC0022
:10001600F130FD00FD0B0D28FC0B0D28FB0B0D2808
:10002600F4010830740203183B280808F300F30CA7
:10003600F31301300805F2000730F1007208F000F2
:10004600710803192A28F00D7010FF3E2428700845
:10005600730488000530FB000F30FC00F130FD0012
:10006600FD0B3328FC0B3328FB0B3328F40A14282A
:02007600080080
:1000780083160317890188010313880180308312CE
:08008800A200032042284728D2
:04400E00F20F0007A6
:00000001FF
