:02000000522A82
:100006008316031306108610061186114B08F0009E
:100016007018102883120610122883120614F0187E
:10002600162886101728861470191B2806111C28F6
:100036000615F01920288611212886150D30FD0099
:10004600FD0B232886160D30FD00FD0B2828861291
:020056000800A0
:100058008316031306108610061186114908031922
:100068003828831206163A28831206120D30FD002E
:10007800FD0B3C280D30FD00FD0B40288612831631
:100088004A08CB00CB0CCB13CB0CCB13CB0CCB132C
:10009800CB0CCB1303200F3083164A05CB0003206B
:0200A80008004E
:1000AA00831603134708003A03195E284030C80034
:1000BA005F28C80146084807F0007008C800C9014F
:0A00CA0080307004CA002C200800EA
:1000D400A32883160313C9010130CA002C200D3054
:1000E400FC00FB30FD00FD0B7528FC0B752800009F
:1000F4000000B2288316C6010130C7005520B2287B
:100104008316C9011030CA002C200D30FC00FB30CE
:10011400FD00FD0B8B28FC0B8B2800000000B2288F
:1001240001308316C9004508CA002C200D30FC009C
:10013400FB30FD00FD0B9C28FC0B9C2800000000FC
:10014400B2288316031345080C3A03196B28450893
:100154000A3A03197C284508083A03198228922888
:02016400080091
:0E0166008316031340088A003F088200080039
:10017400831603134308BF004408C000B3208A1148
:100184000A12F00070080319D6284308BF00440877
:10019400C000B3208A110A12C5006A208316031313
:0A01A400C30A0319C40ABA280800B0
:1001AE008316031307154108F0004208F100F10C05
:1001BE00F00CF113F10CF00CF113FF3070058312FB
:1001CE009500013083164105F0007018F128831256
:1001DE001712F3288312171683164108F0004208EF
:1001EE00F100F10CF00CF1130130F005701802293A
:1001FE008312971204298312971692101214121555
:10020E008C100C3097008C1C0D290A2983160711AF
:02021E000800D6
:10022000B3208A110A128000840ABF0A0319C00A87
:08023000F003031D1029080072
:1002380083160313C101C9014030CA002C2083165C
:1002480041082C3E84000008993A031936290130E8
:10025800C90041082C3E84000008CA002C208316DF
:06026800C10A2329080071
:10026E00063083120313FD00FD0B3B2900000C30FA
:10027E008316C5006A20033083160313C600C70118
:10028E0055208316C1010A3041020318582941082E
:10029E00B23E84000008C5006A2083160313C10A0B
:1002AE004A290230C6000130C70055208316C1010D
:1002BE000C30410203186D294108203E84000008CD
:0E02CE00C5006A2083160313C10A5F290800C9
:1002DC00063083120313FD00FD0B722900000C3055
:1002EC008316C5006A2083160313C601C701552067
:1002FC0056308316C3000330C400BA20C601013047
:10030C00C700552045308316C3000330C400BA2003
:02031C000800D7
:10031E00063083120313FD00FD0B932900000C30F1
:10032E008316C5006A2083160313C601C701552024
:10033E008316C101103041020318AF294108A03EB7
:10034E0084000008C5006A2083160313C10AA12980
:10035E000630C6000130C70055208316C101033098
:10036E0041020318C42941086D3E84000008C500EF
:0C037E006A2083160313C10AB629080088
:10038A0083160317890188010730031388000800C0
:10039A00831603138612061206108610061186119A
:1003AA002730FC00F530FD00FD0BD929FC0BD929BB
:1003BA0083120612861203308316CB0003201A30EA
:1003CA00FC00F830FD00FD0BE829FC0BE8290000D1
:1003DA0003308316CB0003201A30FC00F830FD00EE
:1003EA00FD0BF529FC0BF529000003308316CB0021
:1003FA0003201A30FC00F830FD00FD0B022AFC0B2A
:10040A00022A000002308316CB0003200330FC00CE
:10041A009730FD00FD0B0F2AFC0B0F2A000000008D
:10042A008316C9012830CA002C200330FC009730FB
:10043A00FD00FD0B1E2AFC0B1E2A0000000083167D
:10044A00C9010C30CA002C200330FC009730FD0093
:10045A00FD0B2D2AFC0B2D2A000000008316C90172
:10046A000130CA002C200330FC009730FD00FD0B40
:10047A003C2AFC0B3C2A000000008316C901063006
:10048A00CA002C200330FC009730FD00FD0B4B2ADC
:0A049A00FC0B4B2A000000000800D4
:1004A4006223C521CD211C21831208186A2A1A301F
:1004B400FC00F830FD00FD0B5D2AFC0B5D2A0000FA
:1004C4000818692A01308316B0000030B100912A5F
:1004D400831288187E2A1A30FC00F830FD00FD0BC8
:1004E400712AFC0B712A000088187D2A02308316B9
:1004F400B0000030B100912A83120819912A1A30F1
:10050400FC00F830FD00FD0B852AFC0B852A000059
:100514000819912A03308316B0000030B100831605
:100524003E083106031D982A30083D060319CF2AD8
:100534003008BD003108BE0000303106031DA42A76
:1005440001303006031DAC2A831297018316071568
:100554003721CF2A00303106031DB22A023030067B
:10056400031DC22A3C0884007C3080000030840AC9
:1005740080009030C1000130C200D7206E21CF2A04
:1005840000303106031DC82A03303006031DCF2A6C
:0E05940083129701831607158F21562AD02A4D
:1006C40020308400503083120313F000D630831698
:1006D400BF000230C0001021A03084001F30F000A1
:0E06E40026308316BF000330C000102108002E
:1005AC004B340334203454344834753404347434A8
:0805BC002034563458344C344D
:1005C4000E3411340E3411341F3410340F3400340B
:1005D4000E34093409341D34093409340E3400341A
:1005E4000434093413341234123412340C34003405
:1005F40005340A34113411340F3401340E34003408
:100604000E3411340E3411341F34113404340034D4
:100614000E3411340E34113411340E3404340034D5
:10062400083404340E3401340F3411340F340034DC
:10063400023404340E3411341F3410340F340034B3
:020644009934E7
:06064600013402346334AC
:10064C004D340534743420346E34673406347934C4
:10065C00203476347534693420346E34683407347D
:04066C000034003422
:100670004C340034203441346E3468342034013436
:0406800002346334A9
:020684009234AE
:04068600FF34FF340A
:10068A0066343D34283433342B34313429344B34F2
:10069A0048347A34203444343D34383430342534C0
:0206AA0000341A
:1006AC00503475346C3473346534203443344334EF
:0606BC005034313400341B
:04400E00F22F000786
:00000001FF
