:02000000062ACE
:10000800FF00030E83018316A2000A08A1008A01DB
:1000180070088312A3007B08A2007C08A1007D0859
:10002800A0000B100608EF00061B2028061B1D2841
:100038001A28061F2028DC218312861B2928861BE4
:1000480026282328861F2828DC2183122308F0006D
:100058002208FB002108FC002008FD008316210867
:0C0068008A00220E8300FF0E7F0E0900AC
:100074008316031306108610061186112A08F00051
:100084007018472883120610492883120614F018A2
:100094004D2886104E2886147019522806115328AC
:1000A4000615F01957288611582886150D30FD00BD
:1000B400FD0B5A2886160D30FD00FD0B5F288612B5
:0200C400080032
:1000C60083160313061086100611861128080319D5
:1000D6006F28831206167128831206120D30FD0052
:1000E600FD0B73280D30FD00FD0B77288612831655
:1000F6002908AA00AA0CAA13AA0CAA13AA0CAA13C6
:10010600AA0CAA133A200F3083162905AA003A2012
:020116000800DF
:10011800831603132608003A031995284030A700D0
:100128009628A70125082707F0007008A700A8014E
:0A01380080307004A9006320080065
:10014200DA2883160313A8010130A90063200D30B9
:10015200FC00FB30FD00FD0BAC28FC0BAC280000C2
:100162000000E9288316A5010130A6008C20E928A9
:100172008316A8011030A90063200D30FC00FB306B
:10018200FD00FD0BC228FC0BC22800000000E9287C
:1001920001308316A8002408A90063200D30FC005A
:1001A200FB30FD00FD0BD328FC0BD3280000000020
:1001B200E9288316031324080C3A0319A2282408F9
:1001C2000A3A0319B3282408083A0319B928C92896
:0201D200080023
:0E01D400831203136E088A006D088200080073
:1001E2000C3083160313A400A12083160313A50168
:1001F200A6018C208316A3018312550883162302BD
:1002020003180D292308563E84000008A400A120EB
:1002120083160313A30AFD28A5010130A6008C2032
:100222008316A3018312620883162302031823296B
:100232002308633E84000008A400A1208316031350
:10024200A30A13290530FB000F30FC00F130FD003A
:0E025200FD0B2929FC0B2929FB0B292908008B
:1002600083160313A301A8014030A900632083165D
:100270002308243E84000008993A03194A290130D2
:10028000A8002308243E84000008A90063208316E8
:06029000A30A3729080053
:10029600EA208A110A128000840AED0A0319EE0A7E
:0802A600F003031D4B290800C1
:1002AE008316031386120612061086100611861187
:1002BE002730FC00F530FD00FD0B6329FC0B632994
:1002CE0083120612861203308316AA003A201A30C1
:1002DE00FC00F830FD00FD0B7229FC0B72290000AA
:1002EE0003308316AA003A201A30FC00F830FD00C5
:1002FE00FD0B7F29FC0B7F29000003308316AA001B
:10030E003A201A30FC00F830FD00FD0B8C29FC0B56
:10031E008C29000002308316AA003A200330FC001C
:10032E009730FD00FD0B9929FC0B99290000000068
:10033E008316A8012830A90063200330FC009730F3
:10034E00FD00FD0BA829FC0BA82900000000831658
:10035E00A8010C30A90063200330FC009730FD008B
:10036E00FD0BB729FC0BB729000000008316A8016E
:10037E000130A90063200330FC009730FD00FD0B17
:10038E00C629FC0BC629000000008316A801063002
:10039E00A90063200330FC009730FD00FD0BD5292A
:0A03AE00FC0BD52900000000080038
:1003B80083160313A001083020020318052A200819
:1003C800F1008030F00071080319EE29F00CF013E9
:1003D800FF3EE8297008831288000630FB001330BE
:1003E800FC00AD30FD00FD0BF729FC0BF729FB0BDA
:1003F800F729000000008316200AF0007008A0000A
:04040800DF290800E0
:10040C007C228316031789018801C03086000313F0
:10041C0088018B178B150B108113C0309500C030E1
:10042C00960057213021831288010608EF00F12035
:10043C000630FB001330FC00AD30FD00FD0B242A10
:10044C00FC0B242AFB0B242A000000001D2A2D2A59
:1004F80024308400493083120313F0003330ED00B8
:080508000230EE004B21080057
:10046600083404340E3401340F3411340F3400349C
:100476000E3411340E3401340F3411340F34043475
:10048600023415340E3401340F3411340F34003471
:100496000234043409341334123412341F34003451
:1004A6000E3411340E3411341F3410340F3400342A
:1004B6000E34093409341D34093409340E34003439
:0204C600993467
:0204C8000C34F2
:1004CA0042340034693420345434013470342034D2
:0804DA004E346734023474341F
:0204E2000A34DA
:1004E4004C340434203441346E34683420340534BC
:0404F4000334633436
:04400E00F22F000786
:00000001FF
