:02000000FF29D6
:10000800FF00030E83018316A1000A08A2008A01DB
:1000180070088312A3007B08A2007C08A1007D0859
:10002800A0000B1C4F2806088316A0000B10823076
:10003800FC00DD30FD00FD0B1F28FC0B1F28000015
:1000480000008312061F2B28861F2B284F28EF013C
:1000580008306F0203184F286F08F1008030F00055
:10006800710803193B28F00CF013FF3E352870087F
:1000780088000230FB000430FC00BA30FD00FD0BA4
:100088004328FC0B4328FB0B432800006F0AF000B1
:100098007008EF002C282308F0002208FB00210834
:1000A800FC002008FD00831622088A00210E830028
:0600B800FF0E7F0E09009F
:1000BE008316031306108610061186112A08F00007
:1000CE0070186C28831206106E2883120614F0180E
:1000DE0072288610732886147019772806117828CE
:1000EE000615F0197C2886117D2886150D30FD0029
:1000FE00FD0B7F2886160D30FD00FD0B8428861221
:02010E000800E7
:10011000831603130610861006118611280803198A
:100120009428831206169628831206120D30FD00BD
:10013000FD0B98280D30FD00FD0B9C2886128316C0
:100140002908AA00AA0CAA13AA0CAA13AA0CAA137B
:10015000AA0CAA135F200F3083162905AA005F207E
:02016000080095
:10016200831603132608003A0319BA284030A70061
:10017200BB28A70125082707F0007008A700A801DF
:0A01820080307004A90088200800F6
:10018C00FF2883160313A8010130A90088200D3025
:10019C00FC00FB30FD00FD0BD128FC0BD12800002E
:1001AC0000000E298316A5010130A600B1200E29EE
:1001BC008316A8011030A90088200D30FC00FB30FC
:1001CC00FD00FD0BE728FC0BE728000000000E29C2
:1001DC0001308316A8002408A90088200D30FC00EB
:1001EC00FB30FD00FD0BF828FC0BF828000000008C
:1001FC000E298316031324080C3A0319C728240864
:10020C000A3A0319D8282408083A0319DE28EE28DC
:02021C000800D8
:0E021E00831203136E088A006D088200080028
:10022C0083160313A501A601B1208316A301831223
:10023C0060088316230203182D292308613E8400CD
:10024C000008A400C62083160313A30A1D29A501C8
:10025C000130A600B1208316A30183122E08831649
:10026C002302031843292308243E84000008A40019
:10027C00C62083160313A30A33290530FB000F3065
:10028C00FC00F130FD00FD0B4929FC0B4929FB0B4F
:0A029C0049290C30A400C620080018
:1002A60083160313A301A8014030A90088208316F2
:1002B60023082F3E84000008993A03196D2901305E
:1002C600A80023082F3E84000008A9008820831672
:0602D600A30A5A290800EA
:1002DC000F218A110A128000840AED0A0319EE0A12
:0802EC00F003031D6E29080058
:1002F4008316031386120612061086100611861141
:100304002730FC00F530FD00FD0B8629FC0B862907
:1003140083120612861203308316AA005F201A3055
:10032400FC00F830FD00FD0B9529FC0B952900001D
:1003340003308316AA005F201A30FC00F830FD0059
:10034400FD0BA229FC0BA229000003308316AA008E
:100354005F201A30FC00F830FD00FD0BAF29FC0BC8
:10036400AF29000002308316AA005F200330FC008E
:100374009730FD00FD0BBC29FC0BBC2900000000DC
:100384008316A8012830A90088200330FC00973088
:10039400FD00FD0BCB29FC0BCB29000000008316CC
:1003A400A8010C30A90088200330FC009730FD0020
:1003B400FD0BDA29FC0BDA29000000008316A801E2
:1003C4000130A90088200330FC009730FD00FD0BAC
:1003D400E929FC0BE929000000008316A801063076
:1003E400A90088200330FC009730FD00FD0BF8299C
:0A03F400FC0BF829000000000800CF
:1003FE0068228316031789018801C0308600031313
:10040E0088018B178B150B108113C0309500C030EF
:10041E0096007A2153218312880106088316A000C4
:06042E001621172A192A0D
:1004D00024308400493083120313F0001F30ED00F4
:0804E0000230EE006E2108005D
:10043E004C340434203441346E3468342034053462
:04044E0003346334DC
:020452000A346A
:10045400083404340E3401340F3411340F340034AE
:100464000E3411340E3401340F3411340F34043487
:10047400023415340E3401340F3411340F34003483
:100484000234043409341334123412341F34003463
:100494000E3411340E3411341F3410340F3400343C
:1004A4000E34093409341D34093409340E3400344B
:0204B400993479
:0204B6000C3404
:1004B80042340034693420345434013470342034E4
:0804C8004E3467340234743431
:04400E00F22F000786
:00000001FF
