:02000000BA291B
:10000600831603130610861006118611831236080E
:10001600F00070181028061011280614F01815287C
:1000260086101628861470191A2806111B2806151C
:10003600F0191F288611202886150D30FD00FD0BAE
:10004600222886160D30FD00FD0B27288612080093
:1000560083160313061086100611861183123408C0
:10006600031937280616382806120D30FD00FD0B39
:100076003A280D30FD00FD0B3E2886123508B600E5
:10008600B60CB613B60CB613B60CB613B60CB6133E
:0C00960003200F303505B60003200800E1
:1000A200831203133208003A03195A284030B3006E
:1000B2005B28B30131083307F0007008B300B401C4
:0A00C20080307004B5002B20080008
:0E00CC00831203132D088A002C0882000800FE
:1000DA00A32883120313B4010130B5002B200D307D
:1000EA00FC00FB30FD00FD0B7828FC0B7828000093
:1000FA000000B228B1010130B2005120B228B40187
:10010A001030B5002B200D30FC00FB30FD00FD0B3C
:10011A008C28FC0B8C2800000000B2280130B400A7
:10012A003008B5002B200D30FC00FB30FD00FD0B24
:10013A009C28FC0B9C2800000000B22883120313A1
:10014A0030080C3A03196E2830080A3A03197F2836
:0C015A003008083A031984289328080094
:10016600831203132E08AC002F08AD0066208A11F7
:100176000A12F00070080319CD282E08AC002F08CB
:10018600AD0066208A110A12B0006D20AE0A03196E
:06019600AF0AB3280800C7
:10019C0083120313F801F9011030FC00710DF80DF6
:1001AC00F90D7408F8027508031C750FF902031891
:1001BC00E6287408F80775080318750FF90703107B
:0A01CC00F00DF10DFC0BD428080023
:1001D600063083120313B1000130B20051200A30F9
:1001E600F4000030F5002A08F0002B08F100CE20BC
:1001F6007008203E84000008B0006D200A30F4002C
:100206000030F5002A08F0002B08F100CE2078080F
:10021600F0007908F1007008203E84000008B00064
:100226006D200630FB001330FC00AD30FD00FD0BE9
:100236001A29FC0B1A29FB0B1A29000000000800DA
:100246000C3083120313B0006D20B101B2015120AE
:0C0256000A30AE000230AF00B3200800F8
:1002620083160313861206120610861006118611D3
:100272002730FC00F530FD00FD0B3D29FC0B3D292C
:100282008312061286120330B60003201A30FC00D5
:10029200F830FD00FD0B4B29FC0B4B29000003300D
:1002A200B60003201A30FC00F830FD00FD0B572980
:1002B200FC0B572900000330B60003201A30FC0063
:1002C200F830FD00FD0B6329FC0B632900000230AE
:1002D200B60003200330FC009730FD00FD0B6F29B0
:1002E200FC0B6F2900000000B4012830B5002B2060
:1002F2000330FC009730FD00FD0B7D29FC0B7D29AE
:1003020000000000B4010C30B5002B200330FC00CB
:100312009730FD00FD0B8B29FC0B8B2900000000A0
:10032200B4010130B5002B200330FC009730FD00F2
:10033200FD0B9929FC0B992900000000B40106303D
:10034200B5002B200330FC009730FD00FD0BA729E0
:0A035200FC0BA729000000000800C2
:10035C0066208A110A128000840AAC0A0319AD0ABD
:08036C00F003031DAE29080097
:10037400303083120313A0003130A1003230A200C8
:100384003330A3003430A4003530A5003630A60045
:100394003730A7003830A8003930A900AA01AB01D2
:1003A4008316031789018801031307148801831234
:1003B40010149014101110129012901183160C1036
:1003C4000C18E6290B13E7290B170B1BEB298B13CE
:1003D400EC298B1783128F018E010C100714312125
:1003E40023210718082A0E08F100F2017108AA0057
:1003F4007208AB007208003C031D022A71080C3C11
:100404000318072A8E01AA01AB01EB20F329092A5C
:10041400443455344334203443346F3475346E34A7
:0C042400743465347234203431340034F8
:04400E00F22F000786
:00000001FF
