:02000000A52D2C
:10000800FF00030E8301B0000A08AF008A017C08D4
:10001800A2007D08A1000B1C4C288B1D4C2806084B
:10002800AE000B100D30FD00FD0B1828861A2B288A
:100038003430FC00F130FD00FD0B2028FC0B20289B
:1000480000000000861A2A280130AB004C28061B45
:100058003C283430FC00F130FD00FD0B3128FC0B4E
:10006800312800000000061B3B280230AB004C285A
:10007800861B4C283430FC00F130FD00FD0B422873
:10008800FC0B422800000000861B4C280330AB0004
:100098002208FC002108FD002F088A00300E83008A
:0600A800FF0E7F0E0900AF
:0800AE00FA1FF21300300800F4
:1000B600FB14FB1F6528FF30F300F200F100F0008F
:0800C600FA0DF20CFF300800F6
:0E00CE00F201F101F001F801F3010030080029
:1000DC007B15FB1F78280130F300F201F101F001D0
:0800EC00FA0DF20CFF300800D0
:1000F400710DF80DF90D7408F8027508031C750FDD
:10010400F902F00DF10D0F30FC00710DF80DF90D31
:100114007408701C9328F8027508031C750FF90203
:100124009828F80775080318750FF907F00DF10DF5
:10013400FC0B87287018A4287408F807750803189E
:08014400750FF9070000080027
:10014C00A0017208031DBB287108F2007008F100B1
:10015C00F001A0157208031DBB287108F200F10113
:10016C00A011201672080319C9282008F302031DD8
:10017C00031CCD280310F21BD128F00DF10DF20D4C
:10018C00F30BC128CD280130FC006720D4280230A5
:0E019C00FC006E20D4280430FC005720080020
:0601AA00FB15FF30080008
:1001B0007B14FB1FE328F201FA1FFF30F200F1006D
:0A01C000F000FA0DF20CFF30080009
:1001CA007C181B29FC18EC287C193A29E528A0017F
:1001DA007208031D0C297108F2007008F1007808F2
:1001EA00F000F801A0157208031D0C297108F2002D
:1001FA007008F100F001A01120167208031D0C29E5
:10020A007108F200F101A015720803192E292008BD
:10021A00F302031D031C32290310F21B1B29F80DDC
:10022A00F00DF10DF20DF30B122932297B1B701C14
:10023A003629F81F3629F00A0319F10A0319F20AB6
:10024A00031D3629F20CF10CF00CF30A03193A29B2
:10025A0036290130FC0067203D290230FC006E205F
:10026A003D290430FC0057203D290830FC005B2062
:04027A000000080078
:10027E00831203137408003A031D4E297508003AC1
:10028E00031D4E29FF30F0007F30F100A7298312A5
:10029E000313FD01F901F80171087004031900340C
:1002AE0071087506FA00FA1BFD09FB01F51F64299A
:1002BE00F409F509F40A0319F50AF11F6B29F0097F
:1002CE00F109F00A0319F10A71087504FA00FA1B14
:1002DE0080297A207B189329FD1F0034F009F1093B
:1002EE00F00A0319F10AF809F909F80A0319F90ACB
:1002FE000034F51F8F29F11B8B297108F900700846
:10030E00F800F101F0017329F101F001F00A003457
:10031E00F109F009FB0A7029F80A0319F90A7408A1
:10032E007802031D732975087902031D7329F901DB
:10033E00F801F00A0319F10AF11F73290000FF34C6
:02034E000800A5
:10035000831203137408003A031DC3297508003A79
:10036000031DC3297608003A031DC3297708003A04
:10037000031DC329FF30F000FF30F1007F30F20091
:10038000FF30F3005E2A8312031377080319522A01
:1003900073080319552A720876068039FA00F21795
:1003A000F617A0017208F8007108FC007008FD0043
:1003B0007408FD027508031C750FFC027608031C07
:1003C000760FF802F801FC01FD01031CEE29031071
:1003D000F20CF10CF00CF80C0130A0007708F302DD
:1003E000031CF8297E302007F3070318582AFD293B
:1003F0007E302007F307031C5B2A1830FA07FD0D37
:10040000FC0DF80DF00DF10DF20DA00D7408F002C9
:100410007508031C750FF1027608031C760FF202B3
:10042000760DA004201C162A7D14212A7408F007DA
:1004300075080318750FF10776080318760AF20796
:100440007D10FA031F307A05031DFF297B1B7D1CDD
:10045000482A0310F00DF10DF20DA00D7408F00202
:100460007508031C750FF1027608031C760FF20263
:10047000760D20040139FD070318FC0A0319F80A58
:10048000031D482AF80CFC0CFD0CF30A0319582A2A
:10049000FA1FF8137808F2007C08F1007D08F000DC
:1004A00000305D2A0130D5205D2A023067205D2AA8
:0E04B00004305B205D2A08306E20000008003A
:1004BE0083120313FB017308031D77080319B62A71
:1004CE0072087606FA007708F3077E30031C732A4B
:1004DE00F3020318B92A762AF302031CBC2A720807
:1004EE00F8007108FC007008FD00F817F6170310ED
:1004FE00F201F101F0011830A0007D1C902A740861
:10050E00F00775080318750FF10776080318760FB4
:10051E00F207F20CF10CF00CF80CFC0CFD0C0310B5
:10052E00A00B842AF21BA02AF80DF00DF10DF20D8E
:10053E00F3037B1B701CB22AF81FB22AF00A0319B0
:10054E00F10A0319F20A031DB22AF20CF10CF00C97
:10055E00F30A0319B92AFA1FF2130030BE2A01302A
:10056E006720BE2A02305B20BE2A04306E200000B7
:02057E00080073
:100580008312031372087606A000F801F9017308BC
:100590007702031CE32A7708FD007308F7007D0843
:1005A000F3007608FD007208F6007D08F200750879
:1005B000FD007108F5007D08F1007408FD00700869
:1005C000F4007D08F000770803195C2B7208FA002C
:1005D000F217F61777087302F7000319162B083085
:1005E0007702031C0C2BF7007408F9007508F4005F
:1005F0007608F500F60108307702031C0C2BF70093
:100600007408F9007508F400F50108307702031C3E
:100610000C2B7A08F2005C2B77080319162B0310B9
:10062000F60CF50CF40CF90CF70B0F2BA01F232B79
:10063000F909F409F509F609F90A0319F40A031985
:10064000F50A0319F60A7908F80774080318740FF5
:10065000F00775080318750FF10776080318760F71
:10066000F207A01B3C2B031C4C2BF20CF10CF00CE2
:10067000F80CF30F4C2B582B0318502BF809F009EA
:10068000F109F209F80A0319F00A0319F10A03192A
:10069000F20A8030FA06542B0130FC00E5205E2B74
:1006A0000230FC00E5205E2B0430FC00A6205E2B0F
:1006B0000830FC005B205E2B0030FC0000000800CE
:1006C000831203137008F8007108F000F101F201C1
:1006D000F301FB01FC019630F300FA017008F10010
:0C06E0007808F000F801F201A6200800E4
:1006EC0083120313FB01FC01FA0173080319A32BFA
:1006FC00FA13F2178630F302F31B872B0319872B9F
:10070C00A52BF309F30A08307302031C942BF30096
:10071C00F20DF2017308031D03109B2B73080319D0
:10072C009B2B0310F20CF30B972B7B1B721CA32B34
:10073C00031CA32BF20A0319AA2BF101AD2B7B147A
:10074C00FB1FB02BF101B02B0130FC00B22B0030A1
:10075C00FC00B22BFF30FC00FC080319B62BD82090
:06076C007208F000080015
:1007720083120313FB0173080319F62B7208FA00A4
:10078200F2178E30F302F31FF92BF309F30A083044
:100792007302031CDC2BF300F10D7208F100F2016D
:1007A20008307302031CDC2BF300F10DF101730816
:1007B200031D0310E42B73080319E42B0310F20C3E
:1007C200F10CF30BDF2B7B1B711CEE2B031CEE2BAE
:1007D200F10A0319F20AF21B052CFA1F082CF2097E
:1007E200F109F10A0319F20A082CF201F101082CAD
:1007F2007B14FB1F0B2CF201FA1F0B2CFF30F200B3
:10080200F100FA0DF20C0B2C0130FC000D2C003023
:10081200FC000D2CFF30FC00FC080319112CD82021
:0A0822007108F0007208F1000800F0
:0E082C00831203132D088A002C088200080096
:10083A0083120313F801F9011030FC00710DF80D51
:10084A00F90D7408F8027508031C750FF9020318EC
:10085A00352C7408F80775080318750FF907031083
:0A086A00F00DF10DFC0B232C08002B
:1008740083120313FB01FA01F9018030F800F10C33
:10088400F00C031C4E2C7408F90775080318750F37
:10089400FA070318FB0A0310F01F562C7408FA0712
:1008A40075080318750FFB07FB0CFA0CF90CF80C10
:1008B400031C412C7B08F3007A08F2007908F1004C
:0608C4007808F0000800B6
:1008CA0083160313071583129210121412118C1037
:1008DA000C30970083128C18752C831607116F2C15
:0208EA00080004
:1008EC00831203133308033C031D7E2C3208FF3C98
:1008FC000318842CFF30B2000330B30083161208A7
:10090C00013EF000F1010318F10A83123208F400E1
:10091C003308F5003A24FF30F4000330F5001D24B1
:10092C007008A3007108A4007008F200F20D721098
:10093C00F20D72107208950001307005F2007218F9
:10094C00A92C1712AA2C17167008F2007108F300C4
:10095C00F30CF20CF31301307205F0007018B82C84
:08096C009712B92C9716080040
:100974008312031381018B120B1183168111011150
:06098400811001100800C3
:10098A00831203133208F0003308F10060230030A9
:10099A00F4000030F5007A30F6008730F7005F2265
:1009AA000030F4000030F5004830F6008630F700D9
:1009BA00C0220030F400C030F5001930F60089304A
:1009CA00F700A8217008A5007108A6007208A70000
:1009DA007308A800762370088800B4010430340232
:1009EA0003184B2D3408F1000130F0007108031987
:1009FA00022DF00D7010FF3EFC2C700886002508B1
:100A0A00F0002608F1002708F2002808F300B923AD
:100A1A000A30F4000030F5003F217808F000790828
:100A2A00F1000330F3007008F20073080319212D56
:100A3A00F20D7210FF3E1B2D720887000030F40081
:100A4A000030F5002030F6008230F7002508F0006B
:100A5A002608F1002708F2002808F300A8217008E8
:100A6A00A5007108A6007208A7007308A800023042
:100A7A00FB000430FC00BA30FD00FD0B422DFC0BDC
:0E0A8A00422DFB0B422D0000B40AF32C080095
:100A9800213083120313FD00FD0B502D9F149F1C62
:100AA800562D532D1E08F100F00183161E08F00480
:060AB8000030F10408000B
:100ABE00831203139F171F139F121F169F151F11CB
:0C0ACE009F101F14803083169F0008004A
:100ADA008B170B130B12831603138113E030950047
:060AEA008B150B10080043
:100AF0008316031789018801E03086000330031351
:100B00008900031788160817031388018701080056
:100B100083120313F8010830FC00700DF80D7408FF
:100B2000F8020318952DF8070310F00DFC0B8D2D1E
:020B30000800BB
:100B320016248A110A128000840AAC0A0319AD0A2B
:080B4200F003031D992D0800CA
:100B4A0083120313A301A401A501A601A701A80109
:100B5A00A901AA01AB0178255F256D258312060834
:100B6A00AE00042E4C2570088312A9007108AA0051
:100B7A007008B2007108B300C524102E4C25700805
:100B8A008312A9007108AA00F930B200B3016524E2
:100B9A00831203132908B2002A08B3007624102E00
:100BAA00BA240B1DDB2D0B11831281018312B101B3
:100BBA00033031020318032E3108F1000130F0002E
:100BCA0071080319EE2DF00CF013701BF017FF3E9D
:100BDA00E62D700886000A30F4000108F000882526
:100BEA007808F0007008F100F10D7110F10D711024
:100BFA00F10D711071088700B10ADD2D102E2B0836
:100C0A00013A0319B72D2B08023A0319C32D2B08F1
:0A0C1A00033A0319D52DB62D112E53
:04400E00F22F000786
:00000001FF
