:020000003C289A
:10000800FF00030E8301AE000A08AF008A018B1CB3
:1000180011280608AB00AA0A8B102F088A002E0E9A
:080028008300FF0E7F0E0900AA
:0E003000831203132D088A002C08820008009A
:10003E0018208A110A128000840AAC0A0319AD0A2C
:08004E00F003031D1F28080048
:1000560083120313F8010830FC00700DF80D7408C4
:10006600F80203183828F8070310F00DFC0B3028A7
:02007600080080
:100078003F3083120313A0000630A1005B30A200BA
:100088004F30A3006630A4006D30A5007D30A60077
:100098000730A7007F30A8006F30A9008316031728
:1000A80089018801031388018501013083128500C5
:1000B8000130831686008113013095008B170B16CB
:1000C8008B1001178312AA010608AB000A30F4004E
:1000D8002A08F0002B207808F0007008203E8400E1
:0800E800000888006A2877284F
:04400E00F22F000786
:00000001FF
