:02000000AB292A
:1000060083160313061086100611861183124F08F5
:10001600F00070181028061011280614F01815287C
:1000260086101628861470191A2806111B2806151C
:10003600F0191F288611202886150D30FD00FD0BAE
:10004600222886160D30FD00FD0B27288612080093
:1000560083160313061086100611861183124D08A7
:10006600031937280616382806120D30FD00FD0B39
:100076003A280D30FD00FD0B3E2886124E08CF00B3
:10008600CF0CCF13CF0CCF13CF0CCF13CF0CCF1376
:0C00960003200F304E05CF0003200800AF
:1000A200831203134B08003A03195A284030CC003C
:1000B2005B28CC014A084C07F0007008CC00CD0147
:0A00C20080307004CE002B200800EF
:0E00CC008312031345088A00440882000800CE
:1000DA00A32883120313CD010130CE002B200D304B
:1000EA00FC00FB30FD00FD0B7828FC0B7828000093
:1000FA000000B228CA010130CB005120B228CD013C
:10010A001030CE002B200D30FC00FB30FD00FD0B23
:10011A008C28FC0B8C2800000000B2280130CD008E
:10012A004908CE002B200D30FC00FB30FD00FD0BF2
:10013A009C28FC0B9C2800000000B22883120313A1
:10014A0049080C3A03196E2849080A3A03197F2804
:0C015A004908083A03198428932808007B
:10016600831203134708C4004808C50066208A1195
:100176000A12F00070080319CD284708C400480881
:10018600C50066208A110A12C9006D20C70A031924
:06019600C80AB3280800AE
:10019C00013083120313C702031CC8034708480429
:1001AC000319E128FF308F00E7308E000C100C187B
:0801BC00E028DD28CE28080030
:1001C400043083120313C7000030C800CE20080097
:1001D4000C3083120313C9006D20CA01CB015120D6
:1001E400C601390846020318FF2846083A3E84002F
:1001F4000008C9006D20C60AF328CA010130CB00EB
:0E0204005120FC30C7000130C800B3200800B4
:1002120083120313C601CD014030CE002B204608C5
:10022200203E84000008993A031921290130CD00AB
:100232004608203E84000008CE002B20C60A102962
:020242000800B2
:1002440083160313861206120610861006118611F1
:100254002730FC00F530FD00FD0B2E29FC0B2E2968
:100264008312061286120330CF0003201A30FC00DA
:10027400F830FD00FD0B3C29FC0B3C290000033049
:10028400CF0003201A30FC00F830FD00FD0B482994
:10029400FC0B482900000330CF0003201A30FC0077
:1002A400F830FD00FD0B5429FC0B542900000230EA
:1002B400CF0003200330FC009730FD00FD0B6029C4
:1002C400FC0B602900000000CD012830CE002B205B
:1002D4000330FC009730FD00FD0B6E29FC0B6E29EA
:1002E40000000000CD010C30CE002B200330FC00B8
:1002F4009730FD00FD0B7C29FC0B7C2900000000DD
:10030400CD010130CE002B200330FC009730FD00DE
:10031400FD0B8A29FC0B8A2900000000CD01063060
:10032400CE002B200330FC009730FD00FD0B9829F4
:0A033400FC0B9829000000000800EF
:10033E0066208A110A128000840AC40A0319C50AAB
:08034E00F003031D9F290800C4
:100356000A228316031789018801031308108312E2
:100366001014901010159012101683160C100C18FD
:10037600BE290B13BF290B170B1BC3298B13C429CB
:100386008B1783120C1022210921EA200810013054
:10039600C7000030C800CE200814E220C929D2299F
:1004140020308400243083120313F000D830C40049
:080424000130C5009F21080012
:1003B000043411340E3411341F3410340E3400342C
:1003C0000E34093409341D34093409340E34003430
:1003D0000234043401341334123412340C34003433
:0203E00099344E
:0203E2000A34DB
:1003E4004C340034203441346E34683420340134C5
:0403F4000234633438
:1003F800503475346C3473346534203466343D3489
:0A04080032344B3448347A340034A7
:04400E00F22F000786
:00000001FF
